{
  "abi": [
    {
      "inputs": [
        {
          "internalType": "address",
          "name": "to",
          "type": "address"
        }
      ],
      "name": "test",
      "outputs": [
        {
          "internalType": "bool",
          "name": "",
          "type": "bool"
        }
      ],
      "stateMutability": "nonpayable",
      "type": "function"
    }
  ],
  "bytecode": {
    "object": "0x608060405234801561001057600080fd5b50610148806100206000396000f3fe608060405234801561001057600080fd5b506004361061002b5760003560e01c8063bb29998e14610030575b600080fd5b6100566004803603602081101561004657600080fd5b50356001600160a01b031661006a565b604080519115158252519081900360200190f35b6000610075826100b5565b156100b0576040805162461bcd60e51b8152602060048083019190915260248201526319985a5b60e21b604482015290519081900360640190fd5b919050565b6040805160048152602481018252602080820180516001600160e01b031663406f8f9b60e01b178152825193516000808252948593849392908183858b617530fa9350805194505050508080156101095750815b9594505050505056fea26469706673582212207270ee52de1993ba3682fd4433e4c0692e624e9c5724c70184a6cda45da50c9264736f6c63430006000033",
    "linkReferences": {}
  },
  "methodIdentifiers": {
    "test(address)": "bb29998e"
  },
  "id": 20
}