{
  "abi": [
    {
      "inputs": [
        {
          "internalType": "uint256",
          "name": "_gas",
          "type": "uint256"
        }
      ],
      "stateMutability": "nonpayable",
      "type": "constructor"
    },
    {
      "inputs": [],
      "name": "implementTest",
      "outputs": [
        {
          "internalType": "bool",
          "name": "",
          "type": "bool"
        }
      ],
      "stateMutability": "nonpayable",
      "type": "function"
    }
  ],
  "bytecode": {
    "object": "0x608060405234801561001057600080fd5b506040516100e13803806100e18339818101604052602081101561003357600080fd5b5051600055609b806100466000396000f3fe6080604052348015600f57600080fd5b506004361060285760003560e01c8063406f8f9b14602d575b600080fd5b60336047565b604080519115158252519081900360200190f35b6000805a90505b6000545a82031015605d57604e565b60019150509056fea2646970667358221220d4f256c430a8771a475e5d51800217f64fbd4c92094ec4e5384776d14e6dbdff64736f6c63430006000033",
    "linkReferences": {}
  },
  "methodIdentifiers": {
    "implementTest()": "406f8f9b"
  },
  "id": 16
}