{
  "abi": [
    {
      "inputs": [
        {
          "internalType": "address",
          "name": "_contract",
          "type": "address"
        },
        {
          "internalType": "bytes4",
          "name": "_interfaceId",
          "type": "bytes4"
        }
      ],
      "name": "doesContractImplementInterface",
      "outputs": [
        {
          "internalType": "bool",
          "name": "",
          "type": "bool"
        }
      ],
      "stateMutability": "nonpayable",
      "type": "function"
    },
    {
      "inputs": [
        {
          "internalType": "address",
          "name": "to",
          "type": "address"
        },
        {
          "internalType": "bytes4",
          "name": "id",
          "type": "bytes4"
        }
      ],
      "name": "test",
      "outputs": [
        {
          "internalType": "bool",
          "name": "",
          "type": "bool"
        }
      ],
      "stateMutability": "nonpayable",
      "type": "function"
    },
    {
      "inputs": [
        {
          "internalType": "address",
          "name": "to",
          "type": "address"
        },
        {
          "internalType": "bytes4",
          "name": "id",
          "type": "bytes4"
        }
      ],
      "name": "testSingleCall",
      "outputs": [
        {
          "internalType": "bool",
          "name": "",
          "type": "bool"
        }
      ],
      "stateMutability": "nonpayable",
      "type": "function"
    }
  ],
  "bytecode": {
    "object": "0x608060405234801561001057600080fd5b50610248806100206000396000f3fe608060405234801561001057600080fd5b50600436106100415760003560e01c80632efeee9214610046578063a46ccfb714610090578063e9c54384146100c6575b600080fd5b61007c6004803603604081101561005c57600080fd5b5080356001600160a01b031690602001356001600160e01b0319166100fc565b604080519115158252519081900360200190f35b61007c600480360360408110156100a657600080fd5b5080356001600160a01b031690602001356001600160e01b031916610128565b61007c600480360360408110156100dc57600080fd5b5080356001600160a01b031690602001356001600160e01b03191661013c565b600080600061010b85856101de565b9150915081600114801561011f5750806001145b50505092915050565b6000610134838361013c565b505b92915050565b60008080610151856301ffc9a760e01b6101de565b9092509050811580610161575080155b1561017157600092505050610136565b610183856001600160e01b03196101de565b909250905081158061019457508015155b156101a457600092505050610136565b6101ae85856101de565b90925090506001821480156101c35750806001145b156101d357600192505050610136565b506000949350505050565b6040516301ffc9a760e01b8082526004820183905260009182919060208160248189617530fa90519096909550935050505056fea2646970667358221220d591c3a36b0e49b42c143dbe90ba868d02498ee0ab63740fc8f748948f67925064736f6c63430006000033",
    "linkReferences": {}
  },
  "methodIdentifiers": {
    "doesContractImplementInterface(address,bytes4)": "e9c54384",
    "test(address,bytes4)": "a46ccfb7",
    "testSingleCall(address,bytes4)": "2efeee92"
  },
  "id": 13
}