{
  "abi": [
    {
      "inputs": [
        {
          "internalType": "address",
          "name": "to",
          "type": "address"
        }
      ],
      "name": "test",
      "outputs": [
        {
          "internalType": "bool",
          "name": "",
          "type": "bool"
        }
      ],
      "stateMutability": "nonpayable",
      "type": "function"
    }
  ],
  "bytecode": {
    "object": "0x608060405234801561001057600080fd5b50610105806100206000396000f3fe6080604052348015600f57600080fd5b506004361060285760003560e01c8063bb29998e14602d575b600080fd5b605060048036036020811015604157600080fd5b50356001600160a01b03166064565b604080519115158252519081900360200190f35b6000606d826073565b50919050565b6040805160048152602481018252602080820180516001600160e01b031663406f8f9b60e01b178152825193516000808252948593849392908183858b617530fa93508051945050505080801560c65750815b9594505050505056fea2646970667358221220e5111cdd31665dc3ac5d56c73d047bc4dab36bbe4ed3a411e0f405aaf612a7f964736f6c63430006000033",
    "linkReferences": {}
  },
  "methodIdentifiers": {
    "test(address)": "bb29998e"
  },
  "id": 15
}