{
  "abi": [
    {
      "inputs": [
        {
          "internalType": "address",
          "name": "_contract",
          "type": "address"
        },
        {
          "internalType": "bytes4",
          "name": "_interfaceId",
          "type": "bytes4"
        }
      ],
      "name": "doesContractImplementInterface",
      "outputs": [
        {
          "internalType": "bool",
          "name": "",
          "type": "bool"
        }
      ],
      "stateMutability": "nonpayable",
      "type": "function"
    }
  ],
  "bytecode": {
    "object": "0x608060405234801561001057600080fd5b50610188806100206000396000f3fe608060405234801561001057600080fd5b506004361061002b5760003560e01c8063e9c5438414610030575b600080fd5b6100666004803603604081101561004657600080fd5b5080356001600160a01b031690602001356001600160e01b03191661007a565b604080519115158252519081900360200190f35b6000808061008f856301ffc9a760e01b61011e565b909250905081158061009f575080155b156100af57600092505050610118565b6100c1856001600160e01b031961011e565b90925090508115806100d257508015155b156100e257600092505050610118565b6100ec858561011e565b90925090506001821480156101015750806001145b1561011157600192505050610118565b6000925050505b92915050565b6040516301ffc9a760e01b8082526004820183905260009182919060208160248189617530fa90519096909550935050505056fea264697066735822122066b7898e2a281698a72a6edfd42bd6203cb768adab77ecca5ffbc9dd6abea27964736f6c63430006000033",
    "linkReferences": {}
  },
  "methodIdentifiers": {
    "doesContractImplementInterface(address,bytes4)": "e9c54384"
  },
  "id": 10
}