{
  "abi": [
    {
      "inputs": [
        {
          "internalType": "bytes4",
          "name": "_id",
          "type": "bytes4"
        }
      ],
      "name": "supportsInterface",
      "outputs": [
        {
          "internalType": "bool",
          "name": "",
          "type": "bool"
        }
      ],
      "stateMutability": "nonpayable",
      "type": "function"
    }
  ],
  "bytecode": {
    "object": "0x608060405234801561001057600080fd5b5060c88061001f6000396000f3fe6080604052348015600f57600080fd5b506004361060285760003560e01c806301ffc9a714602d575b600080fd5b605160048036036020811015604157600080fd5b50356001600160e01b0319166065565b604080519115158252519081900360200190f35b6000805a61014b0190505b61752f5a82031015607f576070565b50506001600160e01b031990811614159056fea2646970667358221220f08f75b07053c38d3558307e2ab4094f31d905d9746feeaaa72a2b41a56e4c8d64736f6c63430006000033",
    "linkReferences": {}
  },
  "methodIdentifiers": {
    "supportsInterface(bytes4)": "01ffc9a7"
  },
  "id": 8
}