{
  "abi": [
    {
      "inputs": [
        {
          "internalType": "address",
          "name": "to",
          "type": "address"
        },
        {
          "internalType": "bytes4",
          "name": "id",
          "type": "bytes4"
        }
      ],
      "name": "test",
      "outputs": [
        {
          "internalType": "bool",
          "name": "",
          "type": "bool"
        }
      ],
      "stateMutability": "nonpayable",
      "type": "function"
    }
  ],
  "bytecode": {
    "object": "0x608060405234801561001057600080fd5b50610133806100206000396000f3fe6080604052348015600f57600080fd5b506004361060285760003560e01c8063a46ccfb714602d575b600080fd5b606060048036036040811015604157600080fd5b5080356001600160a01b031690602001356001600160e01b0319166074565b604080519115158252519081900360200190f35b6000607e83836085565b5092915050565b604080516001600160e01b031983166024808301919091528251808303909101815260449091018252602081810180516001600160e01b03166301ffc9a760e01b178152825193516000808252948593849392908183858c617530fa93508051945050505080801560f35750815b969550505050505056fea2646970667358221220788a98b08f02d211cbd61b7f2e96c0a795b7bc53a889a744b21d940bb65f53b364736f6c63430006000033",
    "linkReferences": {}
  },
  "methodIdentifiers": {
    "test(address,bytes4)": "a46ccfb7"
  },
  "id": 12
}