{
  "abi": [
    {
      "inputs": [
        {
          "internalType": "address",
          "name": "to",
          "type": "address"
        },
        {
          "internalType": "bytes4",
          "name": "id",
          "type": "bytes4"
        }
      ],
      "name": "test",
      "outputs": [
        {
          "internalType": "bool",
          "name": "",
          "type": "bool"
        }
      ],
      "stateMutability": "nonpayable",
      "type": "function"
    }
  ],
  "bytecode": {
    "object": "0x608060405234801561001057600080fd5b5061024c806100206000396000f3fe608060405234801561001057600080fd5b506004361061002b5760003560e01c8063a46ccfb714610030575b600080fd5b6100666004803603604081101561004657600080fd5b5080356001600160a01b031690602001356001600160e01b03191661007a565b604080519115158252519081900360200190f35b6000610086838361019d565b156101975760408051600481526024810182526020810180516001600160e01b03166001600160e01b03198616178152915181516000936001600160a01b0388169392918291908083835b602083106100f05780518252601f1990920191602091820191016100d1565b6001836020036101000a0380198251168184511680821785525050505050509050019150506000604051808303816000865af19150503d8060008114610152576040519150601f19603f3d011682016040523d82523d6000602084013e610157565b606091505b5050905080610195576040805162461bcd60e51b81526020600482015260056024820152646661696c7360d81b604482015290519081900360640190fd5b505b92915050565b604080516001600160e01b031983166024808301919091528251808303909101815260449091018252602081810180516001600160e01b03166301ffc9a760e01b178152825193516000808252948593849392908183858c617530fa93508051945050505080801561020c5750815b969550505050505056fea2646970667358221220d50b10a8414407362e82241f7de591bbf3f9c39915b7ba74313dece807aaaf9664736f6c63430006000033",
    "linkReferences": {}
  },
  "methodIdentifiers": {
    "test(address,bytes4)": "a46ccfb7"
  },
  "id": 17
}