{
  "abi": [
    {
      "inputs": [
        {
          "internalType": "address",
          "name": "_contract",
          "type": "address"
        },
        {
          "internalType": "bytes4",
          "name": "_interfaceId",
          "type": "bytes4"
        }
      ],
      "name": "doesContractImplementInterface",
      "outputs": [
        {
          "internalType": "bool",
          "name": "",
          "type": "bool"
        }
      ],
      "stateMutability": "nonpayable",
      "type": "function"
    },
    {
      "inputs": [
        {
          "internalType": "address",
          "name": "to",
          "type": "address"
        },
        {
          "internalType": "bytes4",
          "name": "id",
          "type": "bytes4"
        }
      ],
      "name": "test",
      "outputs": [
        {
          "internalType": "bool",
          "name": "",
          "type": "bool"
        }
      ],
      "stateMutability": "nonpayable",
      "type": "function"
    },
    {
      "inputs": [
        {
          "internalType": "address",
          "name": "to",
          "type": "address"
        },
        {
          "internalType": "bytes4",
          "name": "id",
          "type": "bytes4"
        }
      ],
      "name": "testSingleCall",
      "outputs": [
        {
          "internalType": "bool",
          "name": "",
          "type": "bool"
        }
      ],
      "stateMutability": "nonpayable",
      "type": "function"
    }
  ],
  "bytecode": {
    "object": "0x608060405234801561001057600080fd5b50610467806100206000396000f3fe608060405234801561001057600080fd5b50600436106100415760003560e01c80632efeee9214610046578063a46ccfb714610090578063e9c54384146100c6575b600080fd5b61007c6004803603604081101561005c57600080fd5b5080356001600160a01b031690602001356001600160e01b0319166100fc565b604080519115158252519081900360200190f35b61007c600480360360408110156100a657600080fd5b5080356001600160a01b031690602001356001600160e01b031916610238565b61007c600480360360408110156100dc57600080fd5b5080356001600160a01b031690602001356001600160e01b03191661035b565b600080600061010b85856103fd565b9150915081600114801561011f5750806001145b156102305760408051600481526024810182526020810180516001600160e01b03166001600160e01b03198816178152915181516000936001600160a01b038a169392918291908083835b602083106101895780518252601f19909201916020918201910161016a565b6001836020036101000a0380198251168184511680821785525050505050509050019150506000604051808303816000865af19150503d80600081146101eb576040519150601f19603f3d011682016040523d82523d6000602084013e6101f0565b606091505b505090508061022e576040805162461bcd60e51b81526020600482015260056024820152646661696c7360d81b604482015290519081900360640190fd5b505b505092915050565b6000610244838361035b565b156103555760408051600481526024810182526020810180516001600160e01b03166001600160e01b03198616178152915181516000936001600160a01b0388169392918291908083835b602083106102ae5780518252601f19909201916020918201910161028f565b6001836020036101000a0380198251168184511680821785525050505050509050019150506000604051808303816000865af19150503d8060008114610310576040519150601f19603f3d011682016040523d82523d6000602084013e610315565b606091505b5050905080610353576040805162461bcd60e51b81526020600482015260056024820152646661696c7360d81b604482015290519081900360640190fd5b505b92915050565b60008080610370856301ffc9a760e01b6103fd565b9092509050811580610380575080155b1561039057600092505050610355565b6103a2856001600160e01b03196103fd565b90925090508115806103b357508015155b156103c357600092505050610355565b6103cd85856103fd565b90925090506001821480156103e25750806001145b156103f257600192505050610355565b506000949350505050565b6040516301ffc9a760e01b8082526004820183905260009182919060208160248189617530fa90519096909550935050505056fea26469706673582212201e477988489b18a2fd5e771938dee5154b9f81f80e52916bcb76d80c116120b864736f6c63430006000033",
    "linkReferences": {}
  },
  "methodIdentifiers": {
    "doesContractImplementInterface(address,bytes4)": "e9c54384",
    "test(address,bytes4)": "a46ccfb7",
    "testSingleCall(address,bytes4)": "2efeee92"
  },
  "id": 18
}